{
  "contractName": "Election",
  "abi": [
    {
      "inputs": [],
      "stateMutability": "nonpayable",
      "type": "constructor"
    },
    {
      "anonymous": false,
      "inputs": [
        {
          "indexed": true,
          "internalType": "uint256",
          "name": "_candidateId",
          "type": "uint256"
        }
      ],
      "name": "electionupdate",
      "type": "event"
    },
    {
      "inputs": [
        {
          "internalType": "uint256",
          "name": "",
          "type": "uint256"
        }
      ],
      "name": "candidates",
      "outputs": [
        {
          "internalType": "uint256",
          "name": "id",
          "type": "uint256"
        },
        {
          "internalType": "string",
          "name": "name",
          "type": "string"
        },
        {
          "internalType": "uint256",
          "name": "votes",
          "type": "uint256"
        }
      ],
      "stateMutability": "view",
      "type": "function",
      "constant": true
    },
    {
      "inputs": [],
      "name": "candidatesCount",
      "outputs": [
        {
          "internalType": "uint256",
          "name": "",
          "type": "uint256"
        }
      ],
      "stateMutability": "view",
      "type": "function",
      "constant": true
    },
    {
      "inputs": [
        {
          "internalType": "address",
          "name": "",
          "type": "address"
        }
      ],
      "name": "votedornot",
      "outputs": [
        {
          "internalType": "bool",
          "name": "",
          "type": "bool"
        }
      ],
      "stateMutability": "view",
      "type": "function",
      "constant": true
    },
    {
      "inputs": [
        {
          "internalType": "uint256",
          "name": "_candidateId",
          "type": "uint256"
        }
      ],
      "name": "Vote",
      "outputs": [],
      "stateMutability": "nonpayable",
      "type": "function"
    }
  ],
  "bytecode": "0x608060405234801561001057600080fd5b506100556040518060400160405280600581526020017f5472756d7000000000000000000000000000000000000000000000000000000081525061009e60201b60201c565b6100996040518060400160405280600581526020017f4269646f6e00000000000000000000000000000000000000000000000000000081525061009e60201b60201c565b6101b5565b60008081548092919060010191905055506040518060600160405280600054815260200182815260200160008152506001600080548152602001908152602001600020600082015181600001556020820151816001019080519060200190610107929190610118565b506040820151816002015590505050565b828054600181600116156101000203166002900490600052602060002090601f016020900481019282601f1061015957805160ff1916838001178555610187565b82800160010185558215610187579182015b8281111561018657825182559160200191906001019061016b565b5b5090506101949190610198565b5090565b5b808211156101b1576000816000905550600101610199565b5090565b6103f1806101c46000396000f3fe608060405234801561001057600080fd5b506004361061004c5760003560e01c80631bc57022146100515780632d35a8a2146100ab5780633477ee2e146100c9578063dcd6a5cd1461017e575b600080fd5b6100936004803603602081101561006757600080fd5b81019080803573ffffffffffffffffffffffffffffffffffffffff1690602001909291905050506101ac565b60405180821515815260200191505060405180910390f35b6100b36101cc565b6040518082815260200191505060405180910390f35b6100f5600480360360208110156100df57600080fd5b81019080803590602001909291905050506101d2565b6040518084815260200180602001838152602001828103825284818151815260200191508051906020019080838360005b83811015610141578082015181840152602081019050610126565b50505050905090810190601f16801561016e5780820380516001836020036101000a031916815260200191505b5094505050505060405180910390f35b6101aa6004803603602081101561019457600080fd5b8101908080359060200190929190505050610294565b005b60026020528060005260406000206000915054906101000a900460ff1681565b60005481565b6001602052806000526040600020600091509050806000015490806001018054600181600116156101000203166002900480601f0160208091040260200160405190810160405280929190818152602001828054600181600116156101000203166002900480156102845780601f1061025957610100808354040283529160200191610284565b820191906000526020600020905b81548152906001019060200180831161026757829003601f168201915b5050505050908060020154905083565b600260003373ffffffffffffffffffffffffffffffffffffffff1673ffffffffffffffffffffffffffffffffffffffff16815260200190815260200160002060009054906101000a900460ff16156102eb57600080fd5b60006001600083815260200190815260200160002060000154141561030f57600080fd5b6001806000838152602001908152602001600020600201600082825401925050819055506001600260003373ffffffffffffffffffffffffffffffffffffffff1673ffffffffffffffffffffffffffffffffffffffff16815260200190815260200160002060006101000a81548160ff021916908315150217905550807f7c3ba50dfb97b1b2a5acb45148d4e05cd49e5b845b59ae27cc66f4fd8437eb3260405160405180910390a25056fea264697066735822122010d25b3bbb19aab26d1bd1842cb06336933d0c24ebb2a05e0dd866a7f26e5bbd64736f6c63430007000033",
  "immutableReferences": {},
  "source": "// SPDX-License-Identifier: MIT\r\npragma solidity ^0.7.0;\r\n\r\ncontract Election{\r\n\r\n    struct Candidate{\r\n        uint id;\r\n        string name;\r\n        uint votes;\r\n    }\r\n\r\n    uint public candidatesCount;\r\n\r\n    mapping(uint => Candidate) public candidates;\r\n    mapping(address => bool) public votedornot;\r\n\r\n\r\n    event electionupdate(uint indexed _candidateId);\r\n\r\n    constructor(){\r\n        addCandidate(\"Trump\");\r\n        addCandidate(\"Bidon\");\r\n    }\r\n\r\n    function addCandidate(string memory name) private{\r\n        candidatesCount++;\r\n        candidates[candidatesCount] = Candidate(candidatesCount,name,0);\r\n    }\r\n\r\n    function Vote(uint _candidateId) public{\r\n        require(!votedornot[msg.sender]);\r\n        require(candidates[_candidateId].id != 0);\r\n\r\n        candidates[_candidateId].votes+=1;\r\n\r\n        votedornot[msg.sender] = true;\r\n        emit electionupdate(_candidateId);\r\n    }\r\n}",
  "sourcePath": "D:\\proje6\\contracts\\Election.sol",
  "compiler": {
    "name": "solc",
    "version": "0.7.0+commit.9e61f92b.Emscripten.clang"
  },
  "schemaVersion": "3.4.4",
  "updatedAt": "2022-05-29T19:08:14.895Z",
  "networkType": "ethereum",
  "devdoc": {
    "kind": "dev",
    "methods": {},
    "version": 1
  },
  "userdoc": {
    "kind": "user",
    "methods": {},
    "version": 1
  }
}